:0C0000000C942A000C9400000C940000EA
:10000C000C9400000C9400000C9400000C94000064
:10001C000C9400000C9400000C9400000C94000054
:10002C000C9400000C9400000C9400000C94000044
:10003C000C9400000C9400000C9400000C94000034
:10004C000C9400000C940000F894EE27ECBBF1E04B
:10005C00FBBFEBBFE5BF8DE0A2E0BB27ED938A951C
:10006C00E9F780E094E0A0E6ED930197E9F7EFE57E
:10007C00EDBFE4E0EEBFC0E6D1E00C9445000CE22D
:10008C0011E0E4E0EABBEFEFEBBBC89902C0085209
:10009C001040C99902C0085D1F4FDA9B02C0DA9864
:1000AC0001C0DA9AD80102D0F0CFFFCF109639F008
:1000BC00A8958AEF90E00197F1F71197C9F7089589
:00000001FF
